{
  "_format": "hh-sol-artifact-1",
  "contractName": "SumaNumerosPositivos",
  "sourceName": "contracts/SumaNumerosPositivos.sol",
  "abi": [
    {
      "inputs": [],
      "stateMutability": "nonpayable",
      "type": "constructor"
    },
    {
      "inputs": [],
      "name": "resultado",
      "outputs": [
        {
          "internalType": "uint256",
          "name": "",
          "type": "uint256"
        }
      ],
      "stateMutability": "view",
      "type": "function"
    },
    {
      "inputs": [
        {
          "internalType": "uint256",
          "name": "num1",
          "type": "uint256"
        },
        {
          "internalType": "uint256",
          "name": "num2",
          "type": "uint256"
        }
      ],
      "name": "sumarNumeros",
      "outputs": [],
      "stateMutability": "nonpayable",
      "type": "function"
    }
  ],
  "bytecode": "0x608060405234801561001057600080fd5b50600080819055506102c5806100276000396000f3fe608060405234801561001057600080fd5b50600436106100365760003560e01c8063400311201461003b5780635206f10014610057575b600080fd5b6100556004803603810190610050919061011f565b610075565b005b61005f6100de565b60405161006c919061016e565b60405180910390f35b81816000821180156100875750600081115b6100c6576040517f08c379a00000000000000000000000000000000000000000000000000000000081526004016100bd9061020c565b60405180910390fd5b82846100d2919061025b565b60008190555050505050565b60005481565b600080fd5b6000819050919050565b6100fc816100e9565b811461010757600080fd5b50565b600081359050610119816100f3565b92915050565b60008060408385031215610136576101356100e4565b5b60006101448582860161010a565b92505060206101558582860161010a565b9150509250929050565b610168816100e9565b82525050565b6000602082019050610183600083018461015f565b92915050565b600082825260208201905092915050565b7f4c6f73206e756d65726f7320646562656e20736572206d61796f72657320612060008201527f3000000000000000000000000000000000000000000000000000000000000000602082015250565b60006101f6602183610189565b91506102018261019a565b604082019050919050565b60006020820190508181036000830152610225816101e9565b9050919050565b7f4e487b7100000000000000000000000000000000000000000000000000000000600052601160045260246000fd5b6000610266826100e9565b9150610271836100e9565b92508282019050808211156102895761028861022c565b5b9291505056fea26469706673582212201bd33ae9415334c2cd96ff4ea6aa3fac1bf5d5cb2c8a517be292e45339e162a764736f6c63430008130033",
  "linkReferences": {},
  "deployedLinkReferences": {}
}