{
  "_format": "hh-sol-artifact-1",
  "contractName": "CommoditiesModel",
  "sourceName": "contracts/CommoditiesModel.sol",
  "abi": [
    {
      "inputs": [
        {
          "internalType": "string",
          "name": "_name",
          "type": "string"
        },
        {
          "internalType": "string",
          "name": "_symbol",
          "type": "string"
        },
        {
          "internalType": "uint256",
          "name": "initialSupply",
          "type": "uint256"
        }
      ],
      "stateMutability": "nonpayable",
      "type": "constructor"
    },
    {
      "anonymous": false,
      "inputs": [
        {
          "indexed": true,
          "internalType": "address",
          "name": "owner",
          "type": "address"
        },
        {
          "indexed": true,
          "internalType": "address",
          "name": "spender",
          "type": "address"
        },
        {
          "indexed": false,
          "internalType": "uint256",
          "name": "value",
          "type": "uint256"
        }
      ],
      "name": "Approval",
      "type": "event"
    },
    {
      "anonymous": false,
      "inputs": [
        {
          "indexed": true,
          "internalType": "address",
          "name": "previousOwner",
          "type": "address"
        },
        {
          "indexed": true,
          "internalType": "address",
          "name": "newOwner",
          "type": "address"
        }
      ],
      "name": "OwnershipTransferred",
      "type": "event"
    },
    {
      "anonymous": false,
      "inputs": [
        {
          "indexed": true,
          "internalType": "address",
          "name": "account",
          "type": "address"
        },
        {
          "indexed": false,
          "internalType": "uint256",
          "name": "amount",
          "type": "uint256"
        }
      ],
      "name": "TokenCreated",
      "type": "event"
    },
    {
      "anonymous": false,
      "inputs": [
        {
          "indexed": true,
          "internalType": "address",
          "name": "account",
          "type": "address"
        },
        {
          "indexed": true,
          "internalType": "address",
          "name": "spender",
          "type": "address"
        },
        {
          "indexed": false,
          "internalType": "uint256",
          "name": "amount",
          "type": "uint256"
        }
      ],
      "name": "TokenRedeemed",
      "type": "event"
    },
    {
      "anonymous": false,
      "inputs": [
        {
          "indexed": true,
          "internalType": "address",
          "name": "from",
          "type": "address"
        },
        {
          "indexed": true,
          "internalType": "address",
          "name": "to",
          "type": "address"
        },
        {
          "indexed": false,
          "internalType": "uint256",
          "name": "value",
          "type": "uint256"
        }
      ],
      "name": "Transfer",
      "type": "event"
    },
    {
      "anonymous": false,
      "inputs": [
        {
          "indexed": true,
          "internalType": "address",
          "name": "validator",
          "type": "address"
        }
      ],
      "name": "ValidatorAdded",
      "type": "event"
    },
    {
      "anonymous": false,
      "inputs": [
        {
          "indexed": true,
          "internalType": "address",
          "name": "validator",
          "type": "address"
        }
      ],
      "name": "ValidatorRemoved",
      "type": "event"
    },
    {
      "inputs": [
        {
          "internalType": "address",
          "name": "_validator",
          "type": "address"
        }
      ],
      "name": "addValidator",
      "outputs": [],
      "stateMutability": "nonpayable",
      "type": "function"
    },
    {
      "inputs": [
        {
          "internalType": "address",
          "name": "owner",
          "type": "address"
        },
        {
          "internalType": "address",
          "name": "spender",
          "type": "address"
        }
      ],
      "name": "allowance",
      "outputs": [
        {
          "internalType": "uint256",
          "name": "",
          "type": "uint256"
        }
      ],
      "stateMutability": "view",
      "type": "function"
    },
    {
      "inputs": [
        {
          "internalType": "address",
          "name": "spender",
          "type": "address"
        },
        {
          "internalType": "uint256",
          "name": "amount",
          "type": "uint256"
        }
      ],
      "name": "approve",
      "outputs": [
        {
          "internalType": "bool",
          "name": "",
          "type": "bool"
        }
      ],
      "stateMutability": "nonpayable",
      "type": "function"
    },
    {
      "inputs": [
        {
          "internalType": "address",
          "name": "account",
          "type": "address"
        }
      ],
      "name": "balanceOf",
      "outputs": [
        {
          "internalType": "uint256",
          "name": "",
          "type": "uint256"
        }
      ],
      "stateMutability": "view",
      "type": "function"
    },
    {
      "inputs": [
        {
          "internalType": "address",
          "name": "_account",
          "type": "address"
        },
        {
          "internalType": "uint256",
          "name": "_amount",
          "type": "uint256"
        }
      ],
      "name": "createTokens",
      "outputs": [],
      "stateMutability": "nonpayable",
      "type": "function"
    },
    {
      "inputs": [],
      "name": "decimals",
      "outputs": [
        {
          "internalType": "uint8",
          "name": "",
          "type": "uint8"
        }
      ],
      "stateMutability": "view",
      "type": "function"
    },
    {
      "inputs": [
        {
          "internalType": "address",
          "name": "spender",
          "type": "address"
        },
        {
          "internalType": "uint256",
          "name": "subtractedValue",
          "type": "uint256"
        }
      ],
      "name": "decreaseAllowance",
      "outputs": [
        {
          "internalType": "bool",
          "name": "",
          "type": "bool"
        }
      ],
      "stateMutability": "nonpayable",
      "type": "function"
    },
    {
      "inputs": [
        {
          "internalType": "address",
          "name": "spender",
          "type": "address"
        },
        {
          "internalType": "uint256",
          "name": "addedValue",
          "type": "uint256"
        }
      ],
      "name": "increaseAllowance",
      "outputs": [
        {
          "internalType": "bool",
          "name": "",
          "type": "bool"
        }
      ],
      "stateMutability": "nonpayable",
      "type": "function"
    },
    {
      "inputs": [],
      "name": "name",
      "outputs": [
        {
          "internalType": "string",
          "name": "",
          "type": "string"
        }
      ],
      "stateMutability": "view",
      "type": "function"
    },
    {
      "inputs": [],
      "name": "owner",
      "outputs": [
        {
          "internalType": "address",
          "name": "",
          "type": "address"
        }
      ],
      "stateMutability": "view",
      "type": "function"
    },
    {
      "inputs": [
        {
          "internalType": "address",
          "name": "_account",
          "type": "address"
        },
        {
          "internalType": "uint256",
          "name": "_amount",
          "type": "uint256"
        }
      ],
      "name": "redeemTokens",
      "outputs": [],
      "stateMutability": "nonpayable",
      "type": "function"
    },
    {
      "inputs": [
        {
          "internalType": "address",
          "name": "_validator",
          "type": "address"
        }
      ],
      "name": "removeValidator",
      "outputs": [],
      "stateMutability": "nonpayable",
      "type": "function"
    },
    {
      "inputs": [],
      "name": "renounceOwnership",
      "outputs": [],
      "stateMutability": "nonpayable",
      "type": "function"
    },
    {
      "inputs": [],
      "name": "symbol",
      "outputs": [
        {
          "internalType": "string",
          "name": "",
          "type": "string"
        }
      ],
      "stateMutability": "view",
      "type": "function"
    },
    {
      "inputs": [],
      "name": "totalSupply",
      "outputs": [
        {
          "internalType": "uint256",
          "name": "",
          "type": "uint256"
        }
      ],
      "stateMutability": "view",
      "type": "function"
    },
    {
      "inputs": [
        {
          "internalType": "address",
          "name": "to",
          "type": "address"
        },
        {
          "internalType": "uint256",
          "name": "amount",
          "type": "uint256"
        }
      ],
      "name": "transfer",
      "outputs": [
        {
          "internalType": "bool",
          "name": "",
          "type": "bool"
        }
      ],
      "stateMutability": "nonpayable",
      "type": "function"
    },
    {
      "inputs": [
        {
          "internalType": "address",
          "name": "from",
          "type": "address"
        },
        {
          "internalType": "address",
          "name": "to",
          "type": "address"
        },
        {
          "internalType": "uint256",
          "name": "amount",
          "type": "uint256"
        }
      ],
      "name": "transferFrom",
      "outputs": [
        {
          "internalType": "bool",
          "name": "",
          "type": "bool"
        }
      ],
      "stateMutability": "nonpayable",
      "type": "function"
    },
    {
      "inputs": [
        {
          "internalType": "address",
          "name": "newOwner",
          "type": "address"
        }
      ],
      "name": "transferOwnership",
      "outputs": [],
      "stateMutability": "nonpayable",
      "type": "function"
    },
    {
      "inputs": [
        {
          "internalType": "address",
          "name": "validator",
          "type": "address"
        }
      ],
      "name": "validatorBalanceOf",
      "outputs": [
        {
          "internalType": "uint256",
          "name": "",
          "type": "uint256"
        }
      ],
      "stateMutability": "view",
      "type": "function"
    },
    {
      "inputs": [
        {
          "internalType": "address",
          "name": "validator",
          "type": "address"
        }
      ],
      "name": "validatorStatusOf",
      "outputs": [
        {
          "internalType": "bool",
          "name": "",
          "type": "bool"
        }
      ],
      "stateMutability": "view",
      "type": "function"
    }
  ],
  "bytecode": "0x60806040523480156200001157600080fd5b5060405162002d5438038062002d548339818101604052810190620000379190620004ad565b828281600390816200004a919062000788565b5080600490816200005c919062000788565b5050506200007f620000736200009a60201b60201c565b620000a260201b60201c565b6200009133826200016860201b60201c565b5050506200098a565b600033905090565b6000600560009054906101000a900473ffffffffffffffffffffffffffffffffffffffff16905081600560006101000a81548173ffffffffffffffffffffffffffffffffffffffff021916908373ffffffffffffffffffffffffffffffffffffffff1602179055508173ffffffffffffffffffffffffffffffffffffffff168173ffffffffffffffffffffffffffffffffffffffff167f8be0079c531659141344cd1fd0a4f28419497f9722a3daafe3b4186f6b6457e060405160405180910390a35050565b600073ffffffffffffffffffffffffffffffffffffffff168273ffffffffffffffffffffffffffffffffffffffff1603620001da576040517f08c379a0000000000000000000000000000000000000000000000000000000008152600401620001d190620008d0565b60405180910390fd5b620001ee60008383620002d560201b60201c565b806002600082825462000202919062000921565b92505081905550806000808473ffffffffffffffffffffffffffffffffffffffff1673ffffffffffffffffffffffffffffffffffffffff168152602001908152602001600020600082825401925050819055508173ffffffffffffffffffffffffffffffffffffffff16600073ffffffffffffffffffffffffffffffffffffffff167fddf252ad1be2c89b69c2b068fc378daa952ba7f163c4a11628f55a4df523b3ef83604051620002b591906200096d565b60405180910390a3620002d160008383620002da60201b60201c565b5050565b505050565b505050565b6000604051905090565b600080fd5b600080fd5b600080fd5b600080fd5b6000601f19601f8301169050919050565b7f4e487b7100000000000000000000000000000000000000000000000000000000600052604160045260246000fd5b6200034882620002fd565b810181811067ffffffffffffffff821117156200036a57620003696200030e565b5b80604052505050565b60006200037f620002df565b90506200038d82826200033d565b919050565b600067ffffffffffffffff821115620003b057620003af6200030e565b5b620003bb82620002fd565b9050602081019050919050565b60005b83811015620003e8578082015181840152602081019050620003cb565b60008484015250505050565b60006200040b620004058462000392565b62000373565b9050828152602081018484840111156200042a5762000429620002f8565b5b62000437848285620003c8565b509392505050565b600082601f830112620004575762000456620002f3565b5b815162000469848260208601620003f4565b91505092915050565b6000819050919050565b620004878162000472565b81146200049357600080fd5b50565b600081519050620004a7816200047c565b92915050565b600080600060608486031215620004c957620004c8620002e9565b5b600084015167ffffffffffffffff811115620004ea57620004e9620002ee565b5b620004f8868287016200043f565b935050602084015167ffffffffffffffff8111156200051c576200051b620002ee565b5b6200052a868287016200043f565b92505060406200053d8682870162000496565b9150509250925092565b600081519050919050565b7f4e487b7100000000000000000000000000000000000000000000000000000000600052602260045260246000fd5b600060028204905060018216806200059a57607f821691505b602082108103620005b057620005af62000552565b5b50919050565b60008190508160005260206000209050919050565b60006020601f8301049050919050565b600082821b905092915050565b6000600883026200061a7fffffffffffffffffffffffffffffffffffffffffffffffffffffffffffffffff82620005db565b620006268683620005db565b95508019841693508086168417925050509392505050565b6000819050919050565b600062000669620006636200065d8462000472565b6200063e565b62000472565b9050919050565b6000819050919050565b620006858362000648565b6200069d620006948262000670565b848454620005e8565b825550505050565b600090565b620006b4620006a5565b620006c18184846200067a565b505050565b5b81811015620006e957620006dd600082620006aa565b600181019050620006c7565b5050565b601f82111562000738576200070281620005b6565b6200070d84620005cb565b810160208510156200071d578190505b620007356200072c85620005cb565b830182620006c6565b50505b505050565b600082821c905092915050565b60006200075d600019846008026200073d565b1980831691505092915050565b60006200077883836200074a565b9150826002028217905092915050565b620007938262000547565b67ffffffffffffffff811115620007af57620007ae6200030e565b5b620007bb825462000581565b620007c8828285620006ed565b600060209050601f831160018114620008005760008415620007eb578287015190505b620007f785826200076a565b86555062000867565b601f1984166200081086620005b6565b60005b828110156200083a5784890151825560018201915060208501945060208101905062000813565b868310156200085a578489015162000856601f8916826200074a565b8355505b6001600288020188555050505b505050505050565b600082825260208201905092915050565b7f45524332303a206d696e7420746f20746865207a65726f206164647265737300600082015250565b6000620008b8601f836200086f565b9150620008c58262000880565b602082019050919050565b60006020820190508181036000830152620008eb81620008a9565b9050919050565b7f4e487b7100000000000000000000000000000000000000000000000000000000600052601160045260246000fd5b60006200092e8262000472565b91506200093b8362000472565b9250828201905080821115620009565762000955620008f2565b5b92915050565b620009678162000472565b82525050565b60006020820190506200098460008301846200095c565b92915050565b6123ba806200099a6000396000f3fe608060405234801561001057600080fd5b506004361061012c5760003560e01c806370a08231116100ad578063a69e894e11610071578063a69e894e14610359578063a9059cbb14610375578063dad7f110146103a5578063dd62ed3e146103c1578063f2fde38b146103f15761012c565b806370a08231146102b3578063715018a6146102e35780638da5cb5b146102ed57806395d89b411461030b578063a457c2d7146103295761012c565b806339509351116100f457806339509351146101eb5780633afcdff51461021b57806340a141ff1461024b578063476aae1d146102675780634d238c8e146102975761012c565b806306fdde0314610131578063095ea7b31461014f57806318160ddd1461017f57806323b872dd1461019d578063313ce567146101cd575b600080fd5b61013961040d565b60405161014691906117f5565b60405180910390f35b610169600480360381019061016491906118b0565b61049f565b604051610176919061190b565b60405180910390f35b6101876104c2565b6040516101949190611935565b60405180910390f35b6101b760048036038101906101b29190611950565b6104cc565b6040516101c4919061190b565b60405180910390f35b6101d56104fb565b6040516101e291906119bf565b60405180910390f35b610205600480360381019061020091906118b0565b610504565b604051610212919061190b565b60405180910390f35b610235600480360381019061023091906119da565b61053b565b6040516102429190611935565b60405180910390f35b610265600480360381019061026091906119da565b610584565b005b610281600480360381019061027c91906119da565b6106ad565b60405161028e919061190b565b60405180910390f35b6102b160048036038101906102ac91906119da565b610703565b005b6102cd60048036038101906102c891906119da565b6107a9565b6040516102da9190611935565b60405180910390f35b6102eb6107f1565b005b6102f5610805565b6040516103029190611a16565b60405180910390f35b61031361082f565b60405161032091906117f5565b60405180910390f35b610343600480360381019061033e91906118b0565b6108c1565b604051610350919061190b565b60405180910390f35b610373600480360381019061036e91906118b0565b610938565b005b61038f600480360381019061038a91906118b0565b610af5565b60405161039c919061190b565b60405180910390f35b6103bf60048036038101906103ba91906118b0565b610b18565b005b6103db60048036038101906103d69190611a31565b610d17565b6040516103e89190611935565b60405180910390f35b61040b600480360381019061040691906119da565b610d9e565b005b60606003805461041c90611aa0565b80601f016020809104026020016040519081016040528092919081815260200182805461044890611aa0565b80156104955780601f1061046a57610100808354040283529160200191610495565b820191906000526020600020905b81548152906001019060200180831161047857829003601f168201915b5050505050905090565b6000806104aa610e21565b90506104b7818585610e29565b600191505092915050565b6000600254905090565b6000806104d7610e21565b90506104e4858285610ff2565b6104ef85858561107e565b60019150509392505050565b60006012905090565b60008061050f610e21565b90506105308185856105218589610d17565b61052b9190611b00565b610e29565b600191505092915050565b6000600660008373ffffffffffffffffffffffffffffffffffffffff1673ffffffffffffffffffffffffffffffffffffffff168152602001908152602001600020549050919050565b61058c6112f4565b6000600660008373ffffffffffffffffffffffffffffffffffffffff1673ffffffffffffffffffffffffffffffffffffffff16815260200190815260200160002054111561060f576040517f08c379a000000000000000000000000000000000000000000000000000000000815260040161060690611ba6565b60405180910390fd5b6000600760008373ffffffffffffffffffffffffffffffffffffffff1673ffffffffffffffffffffffffffffffffffffffff16815260200190815260200160002060006101000a81548160ff0219169083151502179055508073ffffffffffffffffffffffffffffffffffffffff167fe1434e25d6611e0db941968fdc97811c982ac1602e951637d206f5fdda9dd8f160405160405180910390a250565b6000600760008373ffffffffffffffffffffffffffffffffffffffff1673ffffffffffffffffffffffffffffffffffffffff16815260200190815260200160002060009054906101000a900460ff169050919050565b61070b6112f4565b6001600760008373ffffffffffffffffffffffffffffffffffffffff1673ffffffffffffffffffffffffffffffffffffffff16815260200190815260200160002060006101000a81548160ff0219169083151502179055508073ffffffffffffffffffffffffffffffffffffffff167fe366c1c0452ed8eec96861e9e54141ebff23c9ec89fe27b996b45f5ec388498760405160405180910390a250565b60008060008373ffffffffffffffffffffffffffffffffffffffff1673ffffffffffffffffffffffffffffffffffffffff168152602001908152602001600020549050919050565b6107f96112f4565b6108036000611372565b565b6000600560009054906101000a900473ffffffffffffffffffffffffffffffffffffffff16905090565b60606004805461083e90611aa0565b80601f016020809104026020016040519081016040528092919081815260200182805461086a90611aa0565b80156108b75780601f1061088c576101008083540402835291602001916108b7565b820191906000526020600020905b81548152906001019060200180831161089a57829003601f168201915b5050505050905090565b6000806108cc610e21565b905060006108da8286610d17565b90508381101561091f576040517f08c379a000000000000000000000000000000000000000000000000000000000815260040161091690611c38565b60405180910390fd5b61092c8286868403610e29565b60019250505092915050565b610940610e21565b60011515600760008373ffffffffffffffffffffffffffffffffffffffff1673ffffffffffffffffffffffffffffffffffffffff16815260200190815260200160002060009054906101000a900460ff161515146109d3576040517f08c379a00000000000000000000000000000000000000000000000000000000081526004016109ca90611cca565b60405180910390fd5b600073ffffffffffffffffffffffffffffffffffffffff168373ffffffffffffffffffffffffffffffffffffffff1603610a42576040517f08c379a0000000000000000000000000000000000000000000000000000000008152600401610a3990611d36565b60405180910390fd5b81600660003373ffffffffffffffffffffffffffffffffffffffff1673ffffffffffffffffffffffffffffffffffffffff1681526020019081526020016000206000828254610a919190611b00565b92505081905550610aa28383611438565b8273ffffffffffffffffffffffffffffffffffffffff167f1cef2b4ec7f129e441c961eb4fae22fd3131868db6be990c6f065f35b6b53cf383604051610ae89190611935565b60405180910390a2505050565b600080610b00610e21565b9050610b0d81858561107e565b600191505092915050565b610b20610e21565b60011515600760008373ffffffffffffffffffffffffffffffffffffffff1673ffffffffffffffffffffffffffffffffffffffff16815260200190815260200160002060009054906101000a900460ff16151514610bb3576040517f08c379a0000000000000000000000000000000000000000000000000000000008152600401610baa90611cca565b60405180910390fd5b6000610bbd610e21565b905082600660008373ffffffffffffffffffffffffffffffffffffffff1673ffffffffffffffffffffffffffffffffffffffff168152602001908152602001600020541015610c41576040517f08c379a0000000000000000000000000000000000000000000000000000000008152600401610c3890611dc8565b60405180910390fd5b610c4c848285610ff2565b610c56848461158e565b82600660008373ffffffffffffffffffffffffffffffffffffffff1673ffffffffffffffffffffffffffffffffffffffff1681526020019081526020016000206000828254610ca59190611de8565b925050819055508073ffffffffffffffffffffffffffffffffffffffff168473ffffffffffffffffffffffffffffffffffffffff167f975b586f2fb0dbcdf0d2ab3ded0bac9875a07835d04b59fe86689c358e73432b85604051610d099190611935565b60405180910390a350505050565b6000600160008473ffffffffffffffffffffffffffffffffffffffff1673ffffffffffffffffffffffffffffffffffffffff16815260200190815260200160002060008373ffffffffffffffffffffffffffffffffffffffff1673ffffffffffffffffffffffffffffffffffffffff16815260200190815260200160002054905092915050565b610da66112f4565b600073ffffffffffffffffffffffffffffffffffffffff168173ffffffffffffffffffffffffffffffffffffffff1603610e15576040517f08c379a0000000000000000000000000000000000000000000000000000000008152600401610e0c90611e8e565b60405180910390fd5b610e1e81611372565b50565b600033905090565b600073ffffffffffffffffffffffffffffffffffffffff168373ffffffffffffffffffffffffffffffffffffffff1603610e98576040517f08c379a0000000000000000000000000000000000000000000000000000000008152600401610e8f90611f20565b60405180910390fd5b600073ffffffffffffffffffffffffffffffffffffffff168273ffffffffffffffffffffffffffffffffffffffff1603610f07576040517f08c379a0000000000000000000000000000000000000000000000000000000008152600401610efe90611fb2565b60405180910390fd5b80600160008573ffffffffffffffffffffffffffffffffffffffff1673ffffffffffffffffffffffffffffffffffffffff16815260200190815260200160002060008473ffffffffffffffffffffffffffffffffffffffff1673ffffffffffffffffffffffffffffffffffffffff168152602001908152602001600020819055508173ffffffffffffffffffffffffffffffffffffffff168373ffffffffffffffffffffffffffffffffffffffff167f8c5be1e5ebec7d5bd14f71427d1e84f3dd0314c0f7b2291e5b200ac8c7c3b92583604051610fe59190611935565b60405180910390a3505050565b6000610ffe8484610d17565b90507fffffffffffffffffffffffffffffffffffffffffffffffffffffffffffffffff8114611078578181101561106a576040517f08c379a00000000000000000000000000000000000000000000000000000000081526004016110619061201e565b60405180910390fd5b6110778484848403610e29565b5b50505050565b600073ffffffffffffffffffffffffffffffffffffffff168373ffffffffffffffffffffffffffffffffffffffff16036110ed576040517f08c379a00000000000000000000000000000000000000000000000000000000081526004016110e4906120b0565b60405180910390fd5b600073ffffffffffffffffffffffffffffffffffffffff168273ffffffffffffffffffffffffffffffffffffffff160361115c576040517f08c379a000000000000000000000000000000000000000000000000000000000815260040161115390612142565b60405180910390fd5b61116783838361175b565b60008060008573ffffffffffffffffffffffffffffffffffffffff1673ffffffffffffffffffffffffffffffffffffffff168152602001908152602001600020549050818110156111ed576040517f08c379a00000000000000000000000000000000000000000000000000000000081526004016111e4906121d4565b60405180910390fd5b8181036000808673ffffffffffffffffffffffffffffffffffffffff1673ffffffffffffffffffffffffffffffffffffffff16815260200190815260200160002081905550816000808573ffffffffffffffffffffffffffffffffffffffff1673ffffffffffffffffffffffffffffffffffffffff168152602001908152602001600020600082825401925050819055508273ffffffffffffffffffffffffffffffffffffffff168473ffffffffffffffffffffffffffffffffffffffff167fddf252ad1be2c89b69c2b068fc378daa952ba7f163c4a11628f55a4df523b3ef846040516112db9190611935565b60405180910390a36112ee848484611760565b50505050565b6112fc610e21565b73ffffffffffffffffffffffffffffffffffffffff1661131a610805565b73ffffffffffffffffffffffffffffffffffffffff1614611370576040517f08c379a000000000000000000000000000000000000000000000000000000000815260040161136790612240565b60405180910390fd5b565b6000600560009054906101000a900473ffffffffffffffffffffffffffffffffffffffff16905081600560006101000a81548173ffffffffffffffffffffffffffffffffffffffff021916908373ffffffffffffffffffffffffffffffffffffffff1602179055508173ffffffffffffffffffffffffffffffffffffffff168173ffffffffffffffffffffffffffffffffffffffff167f8be0079c531659141344cd1fd0a4f28419497f9722a3daafe3b4186f6b6457e060405160405180910390a35050565b600073ffffffffffffffffffffffffffffffffffffffff168273ffffffffffffffffffffffffffffffffffffffff16036114a7576040517f08c379a000000000000000000000000000000000000000000000000000000000815260040161149e90611d36565b60405180910390fd5b6114b36000838361175b565b80600260008282546114c59190611b00565b92505081905550806000808473ffffffffffffffffffffffffffffffffffffffff1673ffffffffffffffffffffffffffffffffffffffff168152602001908152602001600020600082825401925050819055508173ffffffffffffffffffffffffffffffffffffffff16600073ffffffffffffffffffffffffffffffffffffffff167fddf252ad1be2c89b69c2b068fc378daa952ba7f163c4a11628f55a4df523b3ef836040516115769190611935565b60405180910390a361158a60008383611760565b5050565b600073ffffffffffffffffffffffffffffffffffffffff168273ffffffffffffffffffffffffffffffffffffffff16036115fd576040517f08c379a00000000000000000000000000000000000000000000000000000000081526004016115f4906122d2565b60405180910390fd5b6116098260008361175b565b60008060008473ffffffffffffffffffffffffffffffffffffffff1673ffffffffffffffffffffffffffffffffffffffff1681526020019081526020016000205490508181101561168f576040517f08c379a000000000000000000000000000000000000000000000000000000000815260040161168690612364565b60405180910390fd5b8181036000808573ffffffffffffffffffffffffffffffffffffffff1673ffffffffffffffffffffffffffffffffffffffff1681526020019081526020016000208190555081600260008282540392505081905550600073ffffffffffffffffffffffffffffffffffffffff168373ffffffffffffffffffffffffffffffffffffffff167fddf252ad1be2c89b69c2b068fc378daa952ba7f163c4a11628f55a4df523b3ef846040516117429190611935565b60405180910390a361175683600084611760565b505050565b505050565b505050565b600081519050919050565b600082825260208201905092915050565b60005b8381101561179f578082015181840152602081019050611784565b60008484015250505050565b6000601f19601f8301169050919050565b60006117c782611765565b6117d18185611770565b93506117e1818560208601611781565b6117ea816117ab565b840191505092915050565b6000602082019050818103600083015261180f81846117bc565b905092915050565b600080fd5b600073ffffffffffffffffffffffffffffffffffffffff82169050919050565b60006118478261181c565b9050919050565b6118578161183c565b811461186257600080fd5b50565b6000813590506118748161184e565b92915050565b6000819050919050565b61188d8161187a565b811461189857600080fd5b50565b6000813590506118aa81611884565b92915050565b600080604083850312156118c7576118c6611817565b5b60006118d585828601611865565b92505060206118e68582860161189b565b9150509250929050565b60008115159050919050565b611905816118f0565b82525050565b600060208201905061192060008301846118fc565b92915050565b61192f8161187a565b82525050565b600060208201905061194a6000830184611926565b92915050565b60008060006060848603121561196957611968611817565b5b600061197786828701611865565b935050602061198886828701611865565b92505060406119998682870161189b565b9150509250925092565b600060ff82169050919050565b6119b9816119a3565b82525050565b60006020820190506119d460008301846119b0565b92915050565b6000602082840312156119f0576119ef611817565b5b60006119fe84828501611865565b91505092915050565b611a108161183c565b82525050565b6000602082019050611a2b6000830184611a07565b92915050565b60008060408385031215611a4857611a47611817565b5b6000611a5685828601611865565b9250506020611a6785828601611865565b9150509250929050565b7f4e487b7100000000000000000000000000000000000000000000000000000000600052602260045260246000fd5b60006002820490506001821680611ab857607f821691505b602082108103611acb57611aca611a71565b5b50919050565b7f4e487b7100000000000000000000000000000000000000000000000000000000600052601160045260246000fd5b6000611b0b8261187a565b9150611b168361187a565b9250828201905080821115611b2e57611b2d611ad1565b5b92915050565b7f436f6d6d6f6469746965733a20796f752063616e27742072656d6f766520612060008201527f76616c696461746f72207769746820746f6b656e732061737369676e65640000602082015250565b6000611b90603e83611770565b9150611b9b82611b34565b604082019050919050565b60006020820190508181036000830152611bbf81611b83565b9050919050565b7f45524332303a2064656372656173656420616c6c6f77616e63652062656c6f7760008201527f207a65726f000000000000000000000000000000000000000000000000000000602082015250565b6000611c22602583611770565b9150611c2d82611bc6565b604082019050919050565b60006020820190508181036000830152611c5181611c15565b9050919050565b7f436f6d6d6f6469746965733a20796f7520617265206e6f7420612076616c696460008201527f61746f7200000000000000000000000000000000000000000000000000000000602082015250565b6000611cb4602483611770565b9150611cbf82611c58565b604082019050919050565b60006020820190508181036000830152611ce381611ca7565b9050919050565b7f45524332303a206d696e7420746f20746865207a65726f206164647265737300600082015250565b6000611d20601f83611770565b9150611d2b82611cea565b602082019050919050565b60006020820190508181036000830152611d4f81611d13565b9050919050565b7f436f6d6d6f6469746965733a20796f7520646f6e2774206861766520656e6f7560008201527f676820746f6b656e7320746f2072656465656d00000000000000000000000000602082015250565b6000611db2603383611770565b9150611dbd82611d56565b604082019050919050565b60006020820190508181036000830152611de181611da5565b9050919050565b6000611df38261187a565b9150611dfe8361187a565b9250828203905081811115611e1657611e15611ad1565b5b92915050565b7f4f776e61626c653a206e6577206f776e657220697320746865207a65726f206160008201527f6464726573730000000000000000000000000000000000000000000000000000602082015250565b6000611e78602683611770565b9150611e8382611e1c565b604082019050919050565b60006020820190508181036000830152611ea781611e6b565b9050919050565b7f45524332303a20617070726f76652066726f6d20746865207a65726f2061646460008201527f7265737300000000000000000000000000000000000000000000000000000000602082015250565b6000611f0a602483611770565b9150611f1582611eae565b604082019050919050565b60006020820190508181036000830152611f3981611efd565b9050919050565b7f45524332303a20617070726f766520746f20746865207a65726f20616464726560008201527f7373000000000000000000000000000000000000000000000000000000000000602082015250565b6000611f9c602283611770565b9150611fa782611f40565b604082019050919050565b60006020820190508181036000830152611fcb81611f8f565b9050919050565b7f45524332303a20696e73756666696369656e7420616c6c6f77616e6365000000600082015250565b6000612008601d83611770565b915061201382611fd2565b602082019050919050565b6000602082019050818103600083015261203781611ffb565b9050919050565b7f45524332303a207472616e736665722066726f6d20746865207a65726f20616460008201527f6472657373000000000000000000000000000000000000000000000000000000602082015250565b600061209a602583611770565b91506120a58261203e565b604082019050919050565b600060208201905081810360008301526120c98161208d565b9050919050565b7f45524332303a207472616e7366657220746f20746865207a65726f206164647260008201527f6573730000000000000000000000000000000000000000000000000000000000602082015250565b600061212c602383611770565b9150612137826120d0565b604082019050919050565b6000602082019050818103600083015261215b8161211f565b9050919050565b7f45524332303a207472616e7366657220616d6f756e742065786365656473206260008201527f616c616e63650000000000000000000000000000000000000000000000000000602082015250565b60006121be602683611770565b91506121c982612162565b604082019050919050565b600060208201905081810360008301526121ed816121b1565b9050919050565b7f4f776e61626c653a2063616c6c6572206973206e6f7420746865206f776e6572600082015250565b600061222a602083611770565b9150612235826121f4565b602082019050919050565b600060208201905081810360008301526122598161221d565b9050919050565b7f45524332303a206275726e2066726f6d20746865207a65726f2061646472657360008201527f7300000000000000000000000000000000000000000000000000000000000000602082015250565b60006122bc602183611770565b91506122c782612260565b604082019050919050565b600060208201905081810360008301526122eb816122af565b9050919050565b7f45524332303a206275726e20616d6f756e7420657863656564732062616c616e60008201527f6365000000000000000000000000000000000000000000000000000000000000602082015250565b600061234e602283611770565b9150612359826122f2565b604082019050919050565b6000602082019050818103600083015261237d81612341565b905091905056fea2646970667358221220eb7c9decb38e362335996d546a8b325a783b3e703716821187d4331b93d749f364736f6c63430008130033",
  "linkReferences": {},
  "deployedLinkReferences": {}
}